{
    "_format": "hh-sol-artifact-1",
    "contractName": "NovelGenie",
    "sourceName": "contracts/NovelGenie.sol",
    "abi": [
        {
            "inputs": [
                {
                    "internalType": "string",
                    "name": "_name",
                    "type": "string"
                },
                {
                    "internalType": "string",
                    "name": "_symbol",
                    "type": "string"
                },
                {
                    "internalType": "uint256",
                    "name": "_cost",
                    "type": "uint256"
                }
            ],
            "stateMutability": "nonpayable",
            "type": "constructor"
        },
        {
            "anonymous": false,
            "inputs": [
                {
                    "indexed": true,
                    "internalType": "address",
                    "name": "owner",
                    "type": "address"
                },
                {
                    "indexed": true,
                    "internalType": "address",
                    "name": "approved",
                    "type": "address"
                },
                {
                    "indexed": true,
                    "internalType": "uint256",
                    "name": "tokenId",
                    "type": "uint256"
                }
            ],
            "name": "Approval",
            "type": "event"
        },
        {
            "anonymous": false,
            "inputs": [
                {
                    "indexed": true,
                    "internalType": "address",
                    "name": "owner",
                    "type": "address"
                },
                {
                    "indexed": true,
                    "internalType": "address",
                    "name": "operator",
                    "type": "address"
                },
                {
                    "indexed": false,
                    "internalType": "bool",
                    "name": "approved",
                    "type": "bool"
                }
            ],
            "name": "ApprovalForAll",
            "type": "event"
        },
        {
            "anonymous": false,
            "inputs": [
                {
                    "indexed": true,
                    "internalType": "address",
                    "name": "from",
                    "type": "address"
                },
                {
                    "indexed": true,
                    "internalType": "address",
                    "name": "to",
                    "type": "address"
                },
                {
                    "indexed": true,
                    "internalType": "uint256",
                    "name": "tokenId",
                    "type": "uint256"
                }
            ],
            "name": "Transfer",
            "type": "event"
        },
        {
            "inputs": [
                {
                    "internalType": "address",
                    "name": "to",
                    "type": "address"
                },
                {
                    "internalType": "uint256",
                    "name": "tokenId",
                    "type": "uint256"
                }
            ],
            "name": "approve",
            "outputs": [],
            "stateMutability": "nonpayable",
            "type": "function"
        },
        {
            "inputs": [
                {
                    "internalType": "address",
                    "name": "owner",
                    "type": "address"
                }
            ],
            "name": "balanceOf",
            "outputs": [
                {
                    "internalType": "uint256",
                    "name": "",
                    "type": "uint256"
                }
            ],
            "stateMutability": "view",
            "type": "function"
        },
        {
            "inputs": [],
            "name": "cost",
            "outputs": [
                {
                    "internalType": "uint256",
                    "name": "",
                    "type": "uint256"
                }
            ],
            "stateMutability": "view",
            "type": "function"
        },
        {
            "inputs": [
                {
                    "internalType": "uint256",
                    "name": "tokenId",
                    "type": "uint256"
                }
            ],
            "name": "getApproved",
            "outputs": [
                {
                    "internalType": "address",
                    "name": "",
                    "type": "address"
                }
            ],
            "stateMutability": "view",
            "type": "function"
        },
        {
            "inputs": [
                {
                    "internalType": "address",
                    "name": "owner",
                    "type": "address"
                },
                {
                    "internalType": "address",
                    "name": "operator",
                    "type": "address"
                }
            ],
            "name": "isApprovedForAll",
            "outputs": [
                {
                    "internalType": "bool",
                    "name": "",
                    "type": "bool"
                }
            ],
            "stateMutability": "view",
            "type": "function"
        },
        {
            "inputs": [
                {
                    "internalType": "string",
                    "name": "tokenURI",
                    "type": "string"
                }
            ],
            "name": "mint",
            "outputs": [],
            "stateMutability": "payable",
            "type": "function"
        },
        {
            "inputs": [],
            "name": "name",
            "outputs": [
                {
                    "internalType": "string",
                    "name": "",
                    "type": "string"
                }
            ],
            "stateMutability": "view",
            "type": "function"
        },
        {
            "inputs": [],
            "name": "owner",
            "outputs": [
                {
                    "internalType": "address",
                    "name": "",
                    "type": "address"
                }
            ],
            "stateMutability": "view",
            "type": "function"
        },
        {
            "inputs": [
                {
                    "internalType": "uint256",
                    "name": "tokenId",
                    "type": "uint256"
                }
            ],
            "name": "ownerOf",
            "outputs": [
                {
                    "internalType": "address",
                    "name": "",
                    "type": "address"
                }
            ],
            "stateMutability": "view",
            "type": "function"
        },
        {
            "inputs": [
                {
                    "internalType": "address",
                    "name": "from",
                    "type": "address"
                },
                {
                    "internalType": "address",
                    "name": "to",
                    "type": "address"
                },
                {
                    "internalType": "uint256",
                    "name": "tokenId",
                    "type": "uint256"
                }
            ],
            "name": "safeTransferFrom",
            "outputs": [],
            "stateMutability": "nonpayable",
            "type": "function"
        },
        {
            "inputs": [
                {
                    "internalType": "address",
                    "name": "from",
                    "type": "address"
                },
                {
                    "internalType": "address",
                    "name": "to",
                    "type": "address"
                },
                {
                    "internalType": "uint256",
                    "name": "tokenId",
                    "type": "uint256"
                },
                {
                    "internalType": "bytes",
                    "name": "data",
                    "type": "bytes"
                }
            ],
            "name": "safeTransferFrom",
            "outputs": [],
            "stateMutability": "nonpayable",
            "type": "function"
        },
        {
            "inputs": [
                {
                    "internalType": "address",
                    "name": "operator",
                    "type": "address"
                },
                {
                    "internalType": "bool",
                    "name": "approved",
                    "type": "bool"
                }
            ],
            "name": "setApprovalForAll",
            "outputs": [],
            "stateMutability": "nonpayable",
            "type": "function"
        },
        {
            "inputs": [
                {
                    "internalType": "bytes4",
                    "name": "interfaceId",
                    "type": "bytes4"
                }
            ],
            "name": "supportsInterface",
            "outputs": [
                {
                    "internalType": "bool",
                    "name": "",
                    "type": "bool"
                }
            ],
            "stateMutability": "view",
            "type": "function"
        },
        {
            "inputs": [],
            "name": "symbol",
            "outputs": [
                {
                    "internalType": "string",
                    "name": "",
                    "type": "string"
                }
            ],
            "stateMutability": "view",
            "type": "function"
        },
        {
            "inputs": [
                {
                    "internalType": "uint256",
                    "name": "tokenId",
                    "type": "uint256"
                }
            ],
            "name": "tokenURI",
            "outputs": [
                {
                    "internalType": "string",
                    "name": "",
                    "type": "string"
                }
            ],
            "stateMutability": "view",
            "type": "function"
        },
        {
            "inputs": [],
            "name": "totalSupply",
            "outputs": [
                {
                    "internalType": "uint256",
                    "name": "",
                    "type": "uint256"
                }
            ],
            "stateMutability": "view",
            "type": "function"
        },
        {
            "inputs": [
                {
                    "internalType": "address",
                    "name": "from",
                    "type": "address"
                },
                {
                    "internalType": "address",
                    "name": "to",
                    "type": "address"
                },
                {
                    "internalType": "uint256",
                    "name": "tokenId",
                    "type": "uint256"
                }
            ],
            "name": "transferFrom",
            "outputs": [],
            "stateMutability": "nonpayable",
            "type": "function"
        },
        {
            "inputs": [],
            "name": "withdraw",
            "outputs": [],
            "stateMutability": "nonpayable",
            "type": "function"
        }
    ],
    "bytecode": "0x60806040523480156200001157600080fd5b5060405162003027380380620030278339818101604052810190620000379190620001f7565b8282816000908051906020019062000051929190620000be565b5080600190805190602001906200006a929190620000be565b50505033600860006101000a81548173ffffffffffffffffffffffffffffffffffffffff021916908373ffffffffffffffffffffffffffffffffffffffff1602179055508060098190555050505062000413565b828054620000cc906200031e565b90600052602060002090601f016020900481019282620000f057600085556200013c565b82601f106200010b57805160ff19168380011785556200013c565b828001600101855582156200013c579182015b828111156200013b5782518255916020019190600101906200011e565b5b5090506200014b91906200014f565b5090565b5b808211156200016a57600081600090555060010162000150565b5090565b6000620001856200017f84620002a8565b6200027f565b9050828152602081018484840111156200019e57600080fd5b620001ab848285620002e8565b509392505050565b600082601f830112620001c557600080fd5b8151620001d78482602086016200016e565b91505092915050565b600081519050620001f181620003f9565b92915050565b6000806000606084860312156200020d57600080fd5b600084015167ffffffffffffffff8111156200022857600080fd5b6200023686828701620001b3565b935050602084015167ffffffffffffffff8111156200025457600080fd5b6200026286828701620001b3565b92505060406200027586828701620001e0565b9150509250925092565b60006200028b6200029e565b905062000299828262000354565b919050565b6000604051905090565b600067ffffffffffffffff821115620002c657620002c5620003b9565b5b620002d182620003e8565b9050602081019050919050565b6000819050919050565b60005b8381101562000308578082015181840152602081019050620002eb565b8381111562000318576000848401525b50505050565b600060028204905060018216806200033757607f821691505b602082108114156200034e576200034d6200038a565b5b50919050565b6200035f82620003e8565b810181811067ffffffffffffffff82111715620003815762000380620003b9565b5b80604052505050565b7f4e487b7100000000000000000000000000000000000000000000000000000000600052602260045260246000fd5b7f4e487b7100000000000000000000000000000000000000000000000000000000600052604160045260246000fd5b6000601f19601f8301169050919050565b6200040481620002de565b81146200041057600080fd5b50565b612c0480620004236000396000f3fe6080604052600436106101095760003560e01c80636352211e11610095578063a22cb46511610064578063a22cb4651461036b578063b88d4fde14610394578063c87b56dd146103bd578063d85d3d27146103fa578063e985e9c51461041657610109565b80636352211e1461029b57806370a08231146102d85780638da5cb5b1461031557806395d89b411461034057610109565b806313faede6116100dc57806313faede6146101dc57806318160ddd1461020757806323b872dd146102325780633ccfd60b1461025b57806342842e0e1461027257610109565b806301ffc9a71461010e57806306fdde031461014b578063081812fc14610176578063095ea7b3146101b3575b600080fd5b34801561011a57600080fd5b506101356004803603810190610130919061202b565b610453565b604051610142919061241e565b60405180910390f35b34801561015757600080fd5b50610160610535565b60405161016d9190612439565b60405180910390f35b34801561018257600080fd5b5061019d600480360381019061019891906120be565b6105c7565b6040516101aa91906123b7565b60405180910390f35b3480156101bf57600080fd5b506101da60048036038101906101d59190611fef565b61060d565b005b3480156101e857600080fd5b506101f1610725565b6040516101fe91906125db565b60405180910390f35b34801561021357600080fd5b5061021c61072b565b60405161022991906125db565b60405180910390f35b34801561023e57600080fd5b5061025960048036038101906102549190611ee9565b61073c565b005b34801561026757600080fd5b5061027061079c565b005b34801561027e57600080fd5b5061029960048036038101906102949190611ee9565b610891565b005b3480156102a757600080fd5b506102c260048036038101906102bd91906120be565b6108b1565b6040516102cf91906123b7565b60405180910390f35b3480156102e457600080fd5b506102ff60048036038101906102fa9190611e84565b610938565b60405161030c91906125db565b60405180910390f35b34801561032157600080fd5b5061032a6109f0565b60405161033791906123b7565b60405180910390f35b34801561034c57600080fd5b50610355610a16565b6040516103629190612439565b60405180910390f35b34801561037757600080fd5b50610392600480360381019061038d9190611fb3565b610aa8565b005b3480156103a057600080fd5b506103bb60048036038101906103b69190611f38565b610abe565b005b3480156103c957600080fd5b506103e460048036038101906103df91906120be565b610b20565b6040516103f19190612439565b60405180910390f35b610414600480360381019061040f919061207d565b610c33565b005b34801561042257600080fd5b5061043d60048036038101906104389190611ead565b610c72565b60405161044a919061241e565b60405180910390f35b60007f80ac58cd000000000000000000000000000000000000000000000000000000007bffffffffffffffffffffffffffffffffffffffffffffffffffffffff1916827bffffffffffffffffffffffffffffffffffffffffffffffffffffffff1916148061051e57507f5b5e139f000000000000000000000000000000000000000000000000000000007bffffffffffffffffffffffffffffffffffffffffffffffffffffffff1916827bffffffffffffffffffffffffffffffffffffffffffffffffffffffff1916145b8061052e575061052d82610d06565b5b9050919050565b60606000805461054490612781565b80601f016020809104026020016040519081016040528092919081815260200182805461057090612781565b80156105bd5780601f10610592576101008083540402835291602001916105bd565b820191906000526020600020905b8154815290600101906020018083116105a057829003601f168201915b5050505050905090565b60006105d282610d70565b6004600083815260200190815260200160002060009054906101000a900473ffffffffffffffffffffffffffffffffffffffff169050919050565b6000610618826108b1565b90508073ffffffffffffffffffffffffffffffffffffffff168373ffffffffffffffffffffffffffffffffffffffff161415610689576040517f08c379a00000000000000000000000000000000000000000000000000000000081526004016106809061259b565b60405180910390fd5b8073ffffffffffffffffffffffffffffffffffffffff166106a8610dbb565b73ffffffffffffffffffffffffffffffffffffffff1614806106d757506106d6816106d1610dbb565b610c72565b5b610716576040517f08c379a000000000000000000000000000000000000000000000000000000000815260040161070d906125bb565b60405180910390fd5b6107208383610dc3565b505050565b60095481565b60006107376007610e7c565b905090565b61074d610747610dbb565b82610e8a565b61078c576040517f08c379a00000000000000000000000000000000000000000000000000000000081526004016107839061245b565b60405180910390fd5b610797838383610f1f565b505050565b600860009054906101000a900473ffffffffffffffffffffffffffffffffffffffff1673ffffffffffffffffffffffffffffffffffffffff163373ffffffffffffffffffffffffffffffffffffffff16146107f657600080fd5b6000600860009054906101000a900473ffffffffffffffffffffffffffffffffffffffff1673ffffffffffffffffffffffffffffffffffffffff164760405161083e906123a2565b60006040518083038185875af1925050503d806000811461087b576040519150601f19603f3d011682016040523d82523d6000602084013e610880565b606091505b505090508061088e57600080fd5b50565b6108ac83838360405180602001604052806000815250610abe565b505050565b6000806108bd83611219565b9050600073ffffffffffffffffffffffffffffffffffffffff168173ffffffffffffffffffffffffffffffffffffffff16141561092f576040517f08c379a00000000000000000000000000000000000000000000000000000000081526004016109269061257b565b60405180910390fd5b80915050919050565b60008073ffffffffffffffffffffffffffffffffffffffff168273ffffffffffffffffffffffffffffffffffffffff1614156109a9576040517f08c379a00000000000000000000000000000000000000000000000000000000081526004016109a09061251b565b60405180910390fd5b600360008373ffffffffffffffffffffffffffffffffffffffff1673ffffffffffffffffffffffffffffffffffffffff168152602001908152602001600020549050919050565b600860009054906101000a900473ffffffffffffffffffffffffffffffffffffffff1681565b606060018054610a2590612781565b80601f0160208091040260200160405190810160405280929190818152602001828054610a5190612781565b8015610a9e5780601f10610a7357610100808354040283529160200191610a9e565b820191906000526020600020905b815481529060010190602001808311610a8157829003601f168201915b5050505050905090565b610aba610ab3610dbb565b8383611256565b5050565b610acf610ac9610dbb565b83610e8a565b610b0e576040517f08c379a0000000000000000000000000000000000000000000000000000000008152600401610b059061245b565b60405180910390fd5b610b1a848484846113c3565b50505050565b6060610b2b82610d70565b6000600660008481526020019081526020016000208054610b4b90612781565b80601f0160208091040260200160405190810160405280929190818152602001828054610b7790612781565b8015610bc45780601f10610b9957610100808354040283529160200191610bc4565b820191906000526020600020905b815481529060010190602001808311610ba757829003601f168201915b505050505090506000610bd561141f565b9050600081511415610beb578192505050610c2e565b600082511115610c20578082604051602001610c0892919061237e565b60405160208183030381529060405292505050610c2e565b610c2984611436565b925050505b919050565b600954341015610c4257600080fd5b610c4c600761149e565b6000610c586007610e7c565b9050610c6433826114b4565b610c6e81836116d2565b5050565b6000600560008473ffffffffffffffffffffffffffffffffffffffff1673ffffffffffffffffffffffffffffffffffffffff16815260200190815260200160002060008373ffffffffffffffffffffffffffffffffffffffff1673ffffffffffffffffffffffffffffffffffffffff16815260200190815260200160002060009054906101000a900460ff16905092915050565b60007f01ffc9a7000000000000000000000000000000000000000000000000000000007bffffffffffffffffffffffffffffffffffffffffffffffffffffffff1916827bffffffffffffffffffffffffffffffffffffffffffffffffffffffff1916149050919050565b610d7981611746565b610db8576040517f08c379a0000000000000000000000000000000000000000000000000000000008152600401610daf9061257b565b60405180910390fd5b50565b600033905090565b816004600083815260200190815260200160002060006101000a81548173ffffffffffffffffffffffffffffffffffffffff021916908373ffffffffffffffffffffffffffffffffffffffff160217905550808273ffffffffffffffffffffffffffffffffffffffff16610e36836108b1565b73ffffffffffffffffffffffffffffffffffffffff167f8c5be1e5ebec7d5bd14f71427d1e84f3dd0314c0f7b2291e5b200ac8c7c3b92560405160405180910390a45050565b600081600001549050919050565b600080610e96836108b1565b90508073ffffffffffffffffffffffffffffffffffffffff168473ffffffffffffffffffffffffffffffffffffffff161480610ed85750610ed78185610c72565b5b80610f1657508373ffffffffffffffffffffffffffffffffffffffff16610efe846105c7565b73ffffffffffffffffffffffffffffffffffffffff16145b91505092915050565b8273ffffffffffffffffffffffffffffffffffffffff16610f3f826108b1565b73ffffffffffffffffffffffffffffffffffffffff1614610f95576040517f08c379a0000000000000000000000000000000000000000000000000000000008152600401610f8c9061249b565b60405180910390fd5b600073ffffffffffffffffffffffffffffffffffffffff168273ffffffffffffffffffffffffffffffffffffffff161415611005576040517f08c379a0000000000000000000000000000000000000000000000000000000008152600401610ffc906124db565b60405180910390fd5b6110128383836001611787565b8273ffffffffffffffffffffffffffffffffffffffff16611032826108b1565b73ffffffffffffffffffffffffffffffffffffffff1614611088576040517f08c379a000000000000000000000000000000000000000000000000000000000815260040161107f9061249b565b60405180910390fd5b6004600082815260200190815260200160002060006101000a81549073ffffffffffffffffffffffffffffffffffffffff02191690556001600360008573ffffffffffffffffffffffffffffffffffffffff1673ffffffffffffffffffffffffffffffffffffffff168152602001908152602001600020600082825403925050819055506001600360008473ffffffffffffffffffffffffffffffffffffffff1673ffffffffffffffffffffffffffffffffffffffff16815260200190815260200160002060008282540192505081905550816002600083815260200190815260200160002060006101000a81548173ffffffffffffffffffffffffffffffffffffffff021916908373ffffffffffffffffffffffffffffffffffffffff160217905550808273ffffffffffffffffffffffffffffffffffffffff168473ffffffffffffffffffffffffffffffffffffffff167fddf252ad1be2c89b69c2b068fc378daa952ba7f163c4a11628f55a4df523b3ef60405160405180910390a4611214838383600161178d565b505050565b60006002600083815260200190815260200160002060009054906101000a900473ffffffffffffffffffffffffffffffffffffffff169050919050565b8173ffffffffffffffffffffffffffffffffffffffff168373ffffffffffffffffffffffffffffffffffffffff1614156112c5576040517f08c379a00000000000000000000000000000000000000000000000000000000081526004016112bc906124fb565b60405180910390fd5b80600560008573ffffffffffffffffffffffffffffffffffffffff1673ffffffffffffffffffffffffffffffffffffffff16815260200190815260200160002060008473ffffffffffffffffffffffffffffffffffffffff1673ffffffffffffffffffffffffffffffffffffffff16815260200190815260200160002060006101000a81548160ff0219169083151502179055508173ffffffffffffffffffffffffffffffffffffffff168373ffffffffffffffffffffffffffffffffffffffff167f17307eab39ab6107e8899845ad3d59bd9653f200f220920489ca2b5937696c31836040516113b6919061241e565b60405180910390a3505050565b6113ce848484610f1f565b6113da84848484611793565b611419576040517f08c379a00000000000000000000000000000000000000000000000000000000081526004016114109061247b565b60405180910390fd5b50505050565b606060405180602001604052806000815250905090565b606061144182610d70565b600061144b61141f565b9050600081511161146b5760405180602001604052806000815250611496565b806114758461192a565b60405160200161148692919061237e565b6040516020818303038152906040525b915050919050565b6001816000016000828254019250508190555050565b600073ffffffffffffffffffffffffffffffffffffffff168273ffffffffffffffffffffffffffffffffffffffff161415611524576040517f08c379a000000000000000000000000000000000000000000000000000000000815260040161151b9061255b565b60405180910390fd5b61152d81611746565b1561156d576040517f08c379a0000000000000000000000000000000000000000000000000000000008152600401611564906124bb565b60405180910390fd5b61157b600083836001611787565b61158481611746565b156115c4576040517f08c379a00000000000000000000000000000000000000000000000000000000081526004016115bb906124bb565b60405180910390fd5b6001600360008473ffffffffffffffffffffffffffffffffffffffff1673ffffffffffffffffffffffffffffffffffffffff16815260200190815260200160002060008282540192505081905550816002600083815260200190815260200160002060006101000a81548173ffffffffffffffffffffffffffffffffffffffff021916908373ffffffffffffffffffffffffffffffffffffffff160217905550808273ffffffffffffffffffffffffffffffffffffffff16600073ffffffffffffffffffffffffffffffffffffffff167fddf252ad1be2c89b69c2b068fc378daa952ba7f163c4a11628f55a4df523b3ef60405160405180910390a46116ce60008383600161178d565b5050565b6116db82611746565b61171a576040517f08c379a00000000000000000000000000000000000000000000000000000000081526004016117119061253b565b60405180910390fd5b80600660008481526020019081526020016000209080519060200190611741929190611ca8565b505050565b60008073ffffffffffffffffffffffffffffffffffffffff1661176883611219565b73ffffffffffffffffffffffffffffffffffffffff1614159050919050565b50505050565b50505050565b60006117b48473ffffffffffffffffffffffffffffffffffffffff16611a4e565b1561191d578373ffffffffffffffffffffffffffffffffffffffff1663150b7a026117dd610dbb565b8786866040518563ffffffff1660e01b81526004016117ff94939291906123d2565b602060405180830381600087803b15801561181957600080fd5b505af192505050801561184a57506040513d601f19601f820116820180604052508101906118479190612054565b60015b6118cd573d806000811461187a576040519150601f19603f3d011682016040523d82523d6000602084013e61187f565b606091505b506000815114156118c5576040517f08c379a00000000000000000000000000000000000000000000000000000000081526004016118bc9061247b565b60405180910390fd5b805181602001fd5b63150b7a0260e01b7bffffffffffffffffffffffffffffffffffffffffffffffffffffffff1916817bffffffffffffffffffffffffffffffffffffffffffffffffffffffff191614915050611922565b600190505b949350505050565b60606000600161193984611a71565b01905060008167ffffffffffffffff81111561197e577f4e487b7100000000000000000000000000000000000000000000000000000000600052604160045260246000fd5b6040519080825280601f01601f1916602001820160405280156119b05781602001600182028036833780820191505090505b509050600082602001820190505b600115611a43578080600190039150507f3031323334353637383961626364656600000000000000000000000000000000600a86061a8153600a8581611a2d577f4e487b7100000000000000000000000000000000000000000000000000000000600052601260045260246000fd5b0494506000851415611a3e57611a43565b6119be565b819350505050919050565b6000808273ffffffffffffffffffffffffffffffffffffffff163b119050919050565b600080600090507a184f03e93ff9f4daa797ed6e38ed64bf6a1f0100000000000000008310611af5577a184f03e93ff9f4daa797ed6e38ed64bf6a1f0100000000000000008381611aeb577f4e487b7100000000000000000000000000000000000000000000000000000000600052601260045260246000fd5b0492506040810190505b6d04ee2d6d415b85acef81000000008310611b58576d04ee2d6d415b85acef81000000008381611b4e577f4e487b7100000000000000000000000000000000000000000000000000000000600052601260045260246000fd5b0492506020810190505b662386f26fc100008310611bad57662386f26fc100008381611ba3577f4e487b7100000000000000000000000000000000000000000000000000000000600052601260045260246000fd5b0492506010810190505b6305f5e1008310611bfc576305f5e1008381611bf2577f4e487b7100000000000000000000000000000000000000000000000000000000600052601260045260246000fd5b0492506008810190505b6127108310611c47576127108381611c3d577f4e487b7100000000000000000000000000000000000000000000000000000000600052601260045260246000fd5b0492506004810190505b60648310611c905760648381611c86577f4e487b7100000000000000000000000000000000000000000000000000000000600052601260045260246000fd5b0492506002810190505b600a8310611c9f576001810190505b80915050919050565b828054611cb490612781565b90600052602060002090601f016020900481019282611cd65760008555611d1d565b82601f10611cef57805160ff1916838001178555611d1d565b82800160010185558215611d1d579182015b82811115611d1c578251825591602001919060010190611d01565b5b509050611d2a9190611d2e565b5090565b5b80821115611d47576000816000905550600101611d2f565b5090565b6000611d5e611d598461261b565b6125f6565b905082815260208101848484011115611d7657600080fd5b611d8184828561273f565b509392505050565b6000611d9c611d978461264c565b6125f6565b905082815260208101848484011115611db457600080fd5b611dbf84828561273f565b509392505050565b600081359050611dd681612b72565b92915050565b600081359050611deb81612b89565b92915050565b600081359050611e0081612ba0565b92915050565b600081519050611e1581612ba0565b92915050565b600082601f830112611e2c57600080fd5b8135611e3c848260208601611d4b565b91505092915050565b600082601f830112611e5657600080fd5b8135611e66848260208601611d89565b91505092915050565b600081359050611e7e81612bb7565b92915050565b600060208284031215611e9657600080fd5b6000611ea484828501611dc7565b91505092915050565b60008060408385031215611ec057600080fd5b6000611ece85828601611dc7565b9250506020611edf85828601611dc7565b9150509250929050565b600080600060608486031215611efe57600080fd5b6000611f0c86828701611dc7565b9350506020611f1d86828701611dc7565b9250506040611f2e86828701611e6f565b9150509250925092565b60008060008060808587031215611f4e57600080fd5b6000611f5c87828801611dc7565b9450506020611f6d87828801611dc7565b9350506040611f7e87828801611e6f565b925050606085013567ffffffffffffffff811115611f9b57600080fd5b611fa787828801611e1b565b91505092959194509250565b60008060408385031215611fc657600080fd5b6000611fd485828601611dc7565b9250506020611fe585828601611ddc565b9150509250929050565b6000806040838503121561200257600080fd5b600061201085828601611dc7565b925050602061202185828601611e6f565b9150509250929050565b60006020828403121561203d57600080fd5b600061204b84828501611df1565b91505092915050565b60006020828403121561206657600080fd5b600061207484828501611e06565b91505092915050565b60006020828403121561208f57600080fd5b600082013567ffffffffffffffff8111156120a957600080fd5b6120b584828501611e45565b91505092915050565b6000602082840312156120d057600080fd5b60006120de84828501611e6f565b91505092915050565b6120f0816126cb565b82525050565b6120ff816126dd565b82525050565b60006121108261267d565b61211a8185612693565b935061212a81856020860161274e565b61213381612842565b840191505092915050565b600061214982612688565b61215381856126af565b935061216381856020860161274e565b61216c81612842565b840191505092915050565b600061218282612688565b61218c81856126c0565b935061219c81856020860161274e565b80840191505092915050565b60006121b5602d836126af565b91506121c082612853565b604082019050919050565b60006121d86032836126af565b91506121e3826128a2565b604082019050919050565b60006121fb6025836126af565b9150612206826128f1565b604082019050919050565b600061221e601c836126af565b915061222982612940565b602082019050919050565b60006122416024836126af565b915061224c82612969565b604082019050919050565b60006122646019836126af565b915061226f826129b8565b602082019050919050565b60006122876029836126af565b9150612292826129e1565b604082019050919050565b60006122aa602e836126af565b91506122b582612a30565b604082019050919050565b60006122cd6020836126af565b91506122d882612a7f565b602082019050919050565b60006122f06018836126af565b91506122fb82612aa8565b602082019050919050565b60006123136021836126af565b915061231e82612ad1565b604082019050919050565b60006123366000836126a4565b915061234182612b20565b600082019050919050565b6000612359603d836126af565b915061236482612b23565b604082019050919050565b61237881612735565b82525050565b600061238a8285612177565b91506123968284612177565b91508190509392505050565b60006123ad82612329565b9150819050919050565b60006020820190506123cc60008301846120e7565b92915050565b60006080820190506123e760008301876120e7565b6123f460208301866120e7565b612401604083018561236f565b81810360608301526124138184612105565b905095945050505050565b600060208201905061243360008301846120f6565b92915050565b60006020820190508181036000830152612453818461213e565b905092915050565b60006020820190508181036000830152612474816121a8565b9050919050565b60006020820190508181036000830152612494816121cb565b9050919050565b600060208201905081810360008301526124b4816121ee565b9050919050565b600060208201905081810360008301526124d481612211565b9050919050565b600060208201905081810360008301526124f481612234565b9050919050565b6000602082019050818103600083015261251481612257565b9050919050565b600060208201905081810360008301526125348161227a565b9050919050565b600060208201905081810360008301526125548161229d565b9050919050565b60006020820190508181036000830152612574816122c0565b9050919050565b60006020820190508181036000830152612594816122e3565b9050919050565b600060208201905081810360008301526125b481612306565b9050919050565b600060208201905081810360008301526125d48161234c565b9050919050565b60006020820190506125f0600083018461236f565b92915050565b6000612600612611565b905061260c82826127b3565b919050565b6000604051905090565b600067ffffffffffffffff82111561263657612635612813565b5b61263f82612842565b9050602081019050919050565b600067ffffffffffffffff82111561266757612666612813565b5b61267082612842565b9050602081019050919050565b600081519050919050565b600081519050919050565b600082825260208201905092915050565b600081905092915050565b600082825260208201905092915050565b600081905092915050565b60006126d682612715565b9050919050565b60008115159050919050565b60007fffffffff0000000000000000000000000000000000000000000000000000000082169050919050565b600073ffffffffffffffffffffffffffffffffffffffff82169050919050565b6000819050919050565b82818337600083830152505050565b60005b8381101561276c578082015181840152602081019050612751565b8381111561277b576000848401525b50505050565b6000600282049050600182168061279957607f821691505b602082108114156127ad576127ac6127e4565b5b50919050565b6127bc82612842565b810181811067ffffffffffffffff821117156127db576127da612813565b5b80604052505050565b7f4e487b7100000000000000000000000000000000000000000000000000000000600052602260045260246000fd5b7f4e487b7100000000000000000000000000000000000000000000000000000000600052604160045260246000fd5b6000601f19601f8301169050919050565b7f4552433732313a2063616c6c6572206973206e6f7420746f6b656e206f776e6560008201527f72206f7220617070726f76656400000000000000000000000000000000000000602082015250565b7f4552433732313a207472616e7366657220746f206e6f6e20455243373231526560008201527f63656976657220696d706c656d656e7465720000000000000000000000000000602082015250565b7f4552433732313a207472616e736665722066726f6d20696e636f72726563742060008201527f6f776e6572000000000000000000000000000000000000000000000000000000602082015250565b7f4552433732313a20746f6b656e20616c7265616479206d696e74656400000000600082015250565b7f4552433732313a207472616e7366657220746f20746865207a65726f2061646460008201527f7265737300000000000000000000000000000000000000000000000000000000602082015250565b7f4552433732313a20617070726f766520746f2063616c6c657200000000000000600082015250565b7f4552433732313a2061646472657373207a65726f206973206e6f74206120766160008201527f6c6964206f776e65720000000000000000000000000000000000000000000000602082015250565b7f45524337323155524953746f726167653a2055524920736574206f66206e6f6e60008201527f6578697374656e7420746f6b656e000000000000000000000000000000000000602082015250565b7f4552433732313a206d696e7420746f20746865207a65726f2061646472657373600082015250565b7f4552433732313a20696e76616c696420746f6b656e2049440000000000000000600082015250565b7f4552433732313a20617070726f76616c20746f2063757272656e74206f776e6560008201527f7200000000000000000000000000000000000000000000000000000000000000602082015250565b50565b7f4552433732313a20617070726f76652063616c6c6572206973206e6f7420746f60008201527f6b656e206f776e6572206f7220617070726f76656420666f7220616c6c000000602082015250565b612b7b816126cb565b8114612b8657600080fd5b50565b612b92816126dd565b8114612b9d57600080fd5b50565b612ba9816126e9565b8114612bb457600080fd5b50565b612bc081612735565b8114612bcb57600080fd5b5056fea26469706673582212209675b5ff1f21c4b24acd7cf71e4d882685b96d34b526fce5119432f03bb551f264736f6c63430008040033",
    "linkReferences": {},
    "deployedLinkReferences": {}
}